:100000000C9434000C943E000C943E000C943E0082
:100010000C943E000C943E000C943E000C943E0068
:100020000C943E000C943E000C943E000C943E0058
:100030000C943E000C943E000C943E000C943E0048
:100040000C943E000C943E000C943E000C943E0038
:100050000C943E000C943E000C943E000C943E0028
:100060000C943E000C943E0011241FBECFEFD8E04C
:10007000DEBFCDBF0E9440000C9463000C940000D2
:1000800080EE8AB980E284B929B199B1987089B1BA
:100090008071322F347022FD0BC091110BC0811181
:1000A00004C085B9F1CF91110BC080E285B9ECCFC6
:1000B0009111F5CF8823C9F33323A9F39111F5CF1B
:0A00C00080E085B9E1CFF894FFCF8E
:00000001FF
